:100000000C944F010C9496010C9496010C9496015B
:100010000C9496010C9496010C9496010C94960104
:100020000C9496010C9496010C940A120C94DC1218
:100030000C94AE0D0C9496010C9496010C949601C0
:100040000C9496010C9496010C9496010C949601D4
:100050000C9496010C94FB0D0C9496010C94960153
:100060000C9496010C9496010C9496010C949601B4
:100070000C9496010C9496010C9496010C949601A4
:100080000C9496010C9496010C9496010C94960194
:100090000C9496010C9496010C9496010C94960184
:1000A0000C9496010C9496010C94960149137013CC
:1000B000681470136814BC13DF13681436144514E5
:1000C000290035002B003900E100E00011000D008F
:1000D0001800240040003A001E00140004006400D0
:1000E000E20010000E000C00250041003B001F0044
:1000F0001A0016001D00E30036000F001200260053
:1001000042003C002000080007001B002C003700C4
:1001100033001300270043003D00210015000900B3
:1001200006005000380034002F002D0044003E002F
:10013000220017000A00190051005200320030005E
:100140002E0045003F0023001C000B0005004F005F
:10015000E60028002A004C004600010001000100D2
:100160000100010001000100010001000100F50093
:100170000100010001000100010001000100010077
:100180000100010001000100010001000100010067
:100190000100010001000100010001000100010057
:1001A0000100010001000100010001000100010047
:1001B0000100010001000100010001000100010037
:1001C0000100010001000100010001000100010027
:1001D0000100010001000100010001000100F40024
:1001E0000100010001000100010001000100010007
:1001F000010001001A0355005300420020004B008B
:100200006500790062006F00610072006400000008
:100210001403420041004C005400480041005A00C1
:1002200041005200000004030904090222000101F8
:1002300000A0FA09040000010301010009211101D5
:1002400000012240000705810308000A1201100185
:1002500000000008EDFEFEBA0100010200010501E8
:100260000906A101050719E029E7150025019508F0
:10027000750181029501750881010507190029FFA3
:10028000150026FF0095067508810005081901294B
:1002900005950575019102950175039101C0112421
:1002A0001FBECFEFDAE0DEBFCDBF04B603FE27C02E
:1002B0008091BD019091BE01A091BF01B091C0019C
:1002C0008730904BA740B04BD1F41092BD011092F3
:1002D000BE011092BF011092C00114BE84B7877F87
:1002E00084BF0FB6F894A8958091600088618093D0
:1002F0006000109260000FBEE0E0F8E3099511E0A5
:10030000A0E0B1E0ECECF9E202C005900D92A03261
:10031000B107D9F721E0A0E2B1E001C01D92AD3BE9
:10032000B207E1F70E945D0F0C94E4140C940000F6
:1003300081E0089581E008950C949A0108950C9449
:100340009E011F93CF93DF9300D000D01F92CDB7B3
:10035000DEB749835A836B8330913C0189819A814E
:10036000311114C0662359F0222349F00E94B20BC8
:10037000182F682F89819A810E945B0B03C00E940D
:10038000860B182F69817A81812F04C00E94B20BDD
:1003900069817A810F900F900F900F900F90DF91ED
:1003A000CF911F910C944F02FC01262F4081518167
:1003B0006281738184810C94A101CF93DF93EC015E
:1003C00060E00E94D401BE01DF91CF910C949F01A7
:1003D0000E94670C811102C00E940E0D0C9408044B
:1003E0000C94040408950E94820A0E94F2012FEFE7
:1003F00084E39CE0215080409040E1F700C0000081
:100400000C94210E0F931F93CF93DF93EC0161E0C7
:100410000E94D4018C01BE010E949C01882349F1F5
:10042000BE01C8010E94B805882319F1BE01C801A8
:100430000E940A068823E9F0BE01C8010E94350720
:100440008823B9F08A81882369F001158CE51807A3
:1004500031F00F3D1C4531F40E940E0D0AC00E9480
:10046000F30107C0CE01DF91CF911F910F910C9442
:10047000980180E0DF91CF911F910F910895089529
:100480000C943F0281E008950C944202CF93C82F50
:100490000E9440028C2F0E944402CF9108952DE4C7
:1004A000829FC0011124FC012BE0729FE00DF11D21
:1004B0001124E60FF11DEE0FFF1FE054FF4F859151
:1004C00094910895CF93DF930E944F020E941C03E2
:1004D000EC01811521E5920750F5811540E594075F
:1004E00008F057C0883E910580F4803E910508F0E1
:1004F0009FC08130910509F49BC008F497C0049710
:10050000813A910508F494C091C0C11581E0D807E3
:1005100008F48CC0C11520E2D20708F489C0C115C7
:1005200040E4D40708F482C0DF70D06A81C0C115EE
:1005300084E5D80778F4C11523E5D20708F05BC03D
:10054000C11542E5D40708F040C0DC2FCC27C16FAD
:10055000D06A6EC0C11588E5D80708F467C0C11518
:1005600029E5D20708F45DC0C1154AE5D40708F0B3
:100570005DC08C2F8F700E94B00394E0D695C79514
:100580009A95E1F7CF70D0E0DC2FCC27D069C82B4B
:100590004FC054E0969587955A95E1F7282F237020
:1005A0003C2F337081E090E002C0880F991F3A958C
:1005B000E2F79C68922BCF70C695C69520E2C29F49
:1005C000E0011124C82BD92B33C0CE0183709927A9
:1005D00021E030E002C0220F331F8A95E2F78C2F12
:1005E0008695869540E2849FC0011124E901C82BBD
:1005F000D92BDC681DC0CE018370992721E030E043
:1006000002C0220F331F8A95E2F78C2F86958695BC
:1006100040E2849FC0011124E901C82BD92BDA687C
:1006200007C0DC2FCC27C06FD06A02C0C0E0D0E08A
:10063000CE01DF91CF9108958238910569F1B0F430
:100640008133910509F46DC048F48932910509F4AC
:1006500063C08A32910509F469C008958533910514
:1006600009F455C089339105B9F00895833E910589
:1006700069F138F4803E9105B1F0823E910509F1AF
:100680000895863E9105A9F1873E9105B9F1843E12
:10069000910509F064C023C02091AE0120FD4FC038
:1006A00021FD4DC008958091AE0180FD44C0809130
:1006B000AF0180FF44C08091AE0184FD42C083EE53
:1006C0004DC08091AE0182FF38C0F5CF8091AE0160
:1006D00082FD33C08091AF0180FD31C0ECCF8091AD
:1006E000AF0181FF32C08091AE0184FD2AC087EE48
:1006F00035C08091AE0183FF26C0F5CF8091AE0159
:1007000083FD21C08091AF0181FD1FC0ECCF80919E
:10071000AE0185FD1CC01DC08091AE0185FD19C0D4
:1007200016C08091AE0186FD16C017C08091AE0143
:1007300086FD13C010C089E311C082EE0FC080EEA9
:100740000DC080E00BC086EE09C084EE07C089E2D0
:1007500005C085E303C08AE201C081E390E008950B
:100760009091AE0192FF0DC0282F2871283019F406
:10077000877F846006C0282F2471243011F48B7F7A
:10078000886093FF0DC0282F2871283119F4877EC7
:10079000846106C0282F2471243111F48B7E886176
:1007A0002091AF0120FF0DC0382F3871383019F477
:1007B000877F816006C0382F3171313011F48E7F10
:1007C000886021FF0DC0282F2871283119F4877EF9
:1007D000816106C0282F2171213111F48E7E88613C
:1007E00094FD877E0895E82FF0E0EE0FFF1FE4569A
:1007F000FE4F808191810895089580EA8A95F1F7EE
:10080000089508950C9401040C9402040C940104BE
:100810000C940604F894E82FE295EF70F0E031A113
:10082000282F2F7081E090E001C0880F2A95EAF709
:10083000982F9095932391A392A1892B82A37894CA
:100840000895CF93DF93CDE0D1E089910E940A040F
:1008500081E0C831D807C9F7C8E1D1E089910E9489
:100860000A0481E0CF31D807C9F7EEE8F1E0ACE93E
:10087000B1E08CE991E0119211921D921D928E17B8
:100880009F07C9F787E00E94E204DF91CF910C94A3
:10089000E8014F925F927F928F929F92AF92BF92A8
:1008A000CF92DF92EF92FF920F931F93CF93DF933C
:1008B0009DE0E92E91E0F92E00E010E0C0E0CC24AC
:1008C000C394D12C3CE9A32E31E0B32E4701D701CC
:1008D0008C91F894E82FE295EF70F0E021A18F70F1
:1008E000A60102C0440F551F8A95E2F7CA01922F54
:1008F000982B91A392A18095892382A378940E943A
:10090000FD03A601002E02C0440F551F0A94E2F712
:10091000BA0160957095EEE8F1E088E1482E81E03B
:10092000582ED0E020813181D2017D902D01872D7C
:1009300082958F7090E0DC0190968C9190E0B72DBD
:10094000BF7002C095958795BA95E2F780FD04C007
:10095000C901842B952B03C0C9018623972328172F
:10096000390719F091838083D1E03296AE16BF0625
:10097000C9F6EFEFEE1AFE0AD4018C910E940A0428
:10098000CD2B0F5F1F4F0B30110509F09FCF2C2F80
:1009900047E06CE971E08EE891E00E94E3040E9478
:1009A000F0018C2FDF91CF911F910F91FF90EF906D
:1009B000DF90CF90BF90AF909F908F907F905F908F
:1009C0004F9008950895FF920F931F93CF93DF9355
:1009D000F82E092F162FD72FC42F222349F081E09C
:1009E000809322010E94E00D9093210180932001C9
:1009F000809122018823D9F08091200190912101DA
:100A00000E94EC0D069798F0EF2DF02FA12FBD2F2F
:100A100080E090E04C2F50E08417950734F421914A
:100A200031912D933D930196F7CF10922201DF91E2
:100A3000CF911F910F91FF90089588EC90E0089559
:100A4000AF92BF92CF92DF92EF92FF920F931F93DC
:100A5000CF93DF937C015B01C42FD22FFC018281F5
:100A60008823F9F0409325010E94E00D9093240122
:100A70008093230180E28C0F883008F06EC0C7702D
:100A800081E001C0880FCA95EAF7DF91CF911F91ED
:100A90000F91FF90EF90DF90CF90BF90AF900C94AC
:100AA000F80880912501481335C080912301909169
:100AB00024010E94EC0D6C01B701C5010E941D05C7
:100AC000C816D90638F510E21D0FCD17B9F080E22F
:100AD0008C0F883040F4C77081E001C0880FCA9540
:100AE000EAF70E94FF08183058F581E09D2F9770B3
:100AF00001C0880F9A95EAF70E94F808802F0E949B
:100B0000E508183050F5D77081E001C0880FDA95FC
:100B1000EAF70AC080E28C0F8830F8F4C77081E0F1
:100B200001C0880FCA95EAF7DF91CF911F910F910D
:100B3000FF90EF90DF90CF90BF90AF900C94FF08A4
:100B4000802FDF91CF911F910F91FF90EF90DF9059
:100B5000CF90BF90AF900C94E508DF91CF911F919B
:100B60000F91FF90EF90DF90CF90BF90AF900895DE
:100B70000F939C01CB01243F4CE5340731F188F4FD
:100B8000293DFCE53F07D9F02A3D4CE5340779F1D2
:100B9000283D3C45A9F506E221EE41EE68ED7CE5F5
:100BA0002BC0263FFCE53F07E1F0A8F0273F3C457E
:100BB00039F507E225EE46EE67EF7CE51DC007E25A
:100BC00025EE45EE69ED7CE517C006E221EE40EE2C
:100BD00064EF7CE511C007E225EE44EE65EF7CE5AD
:100BE0000BC006E221EE42EE66EF7CE505C008E2AE
:100BF00021E045EE6AED7CE50E94200580E008C01A
:100C0000FC018281882319F01092250101C081E046
:100C10000F910895CF93DF93EC01FB01828188232C
:100C200009F41FC1C230FCE5DF0708F41BC1C6315F
:100C30009CE5D90738F09E012B5F3C4529303105F2
:100C400008F010C10E947A0C9093AF018093AE011E
:100C5000C031ECE5DE0709F4C3C008F041C0C8307C
:100C60008CE5D80709F49AC0F0F4C430ECE5DE074F
:100C700009F487C068F4C2308CE5D80709F477C05E
:100C8000C330DC4509F0E3C08091AE01826076C0DC
:100C9000C630ECE5DE0709F46EC008F07BC0809139
:100CA000AE0188606BC0CC308CE5D80709F485C0F4
:100CB00068F4CA30ECE5DE0709F474C008F079C0C6
:100CC0000E94820A8091AE01806858C0CE308CE5C7
:100CD000D80709F476C008F07FC08091AE018BC0C0
:100CE000CC3FECE5DE0709F44FC018F5C3318CE5C5
:100CF000D80709F47DC078F4C131ECE5DE0709F4CA
:100D000073C0C231DC4509F0A2C00E94820A809102
:100D1000AE018F7733C0C5318CE5D80709F472C0B6
:100D200008F486C0CB3FDC4509F091C08091AF014B
:100D30003EC0C115FDE5DF0709F45FC058F4CE3FA2
:100D40009CE5D90709F444C008F43FC08091AF0185
:100D500082602DC0C230FDE5DF0709F475C008F4DC
:100D60005DC0C330DD4509F072C080E06EC0809187
:100D7000AE01816003C08091AE0180618093AE01BD
:100D800066C08091AE0111C08091AF0182608093F6
:100D9000AF015DC08091AE018062F0CF8091AE0165
:100DA0008064ECCF8091AE0188608460E7CF816081
:100DB000EECF8091AE018E7FE1CF8091AE018D7F2D
:100DC000DDCF8091AE01877FD9CF8091AF0118C070
:100DD0008091AF018D7FDBCF8091AE018F7ECECF32
:100DE0008091AE018F7DCACF8091AE018F7BC6CF3F
:100DF0008091AE01877F8B7FC1CF8091AF018D7FC6
:100E00008E7FC5CF8091AE0182FB222720F991E031
:100E1000922790FB82F990FB83F9B0CF8091AF01CC
:100E2000982F909591708E7F892B90FB81F9AFCF91
:100E30000E94820A8091AE0187FB222720F991E06F
:100E4000922790FB87F99ACF81E00E94100D809144
:100E5000AE019091AF010E948B0C0E94820A80E04B
:100E600001C081E0DF91CF910895CF93DF93863168
:100E70009C4541F5EB010E94410C982F8A812091FD
:100E8000000130910101882379F09A7A81E009F418
:100E900080E080932601911102C069E201C065E300
:100EA000C9010E944B0D0AC080912601811102C028
:100EB00069E201C065E3C9010E944D0D0E94220C48
:100EC00080E001C081E0DF91CF91089590932C01E3
:100ED00080932B010895E0912B01F0912C01309724
:100EE00021F00190F081E02D099480E00895E091D7
:100EF0002B01F0912C01309721F00280F381E02D3D
:100F0000099408952091290130912A012817390761
:100F100071F090932A0180932901E0912B01F091C7
:100F20002C01309721F00680F781E02D0994089577
:100F300020912701309128012817390771F09093EB
:100F4000280180932701E0912B01F0912C0130972B
:100F500021F00084F185E02D0994089585B780681B
:100F600085BF85B7806885BF089581E008950C949A
:100F7000B50708950C94B9070C94B9070C94BC07F5
:100F80000C94B9070C94C0070C94B9070E94AE07E3
:100F90000E94C4070C94C2070E94D70D0E9421042E
:100FA0000E94320E0C94BE077F928F929F92AF9256
:100FB000BF92CF92DF92EF92FF920F931F93CF9346
:100FC000DF93CDB7DEB72A970FB6F894DEBF0FBE1A
:100FD000CDBF0E94BA070E94B9070E9449040E942F
:100FE000B707811111C08FEF89838A831B820E940A
:100FF000E00D8160782F9D838C8349815A816B81BC
:101000008D810E944F0A4FC04EE2A42E41E0B42EC3
:1010100000E010E0702E802F0E94F3036C01F501B8
:10102000819091905F01882699268114910431F472
:101030000F5F1F4F0730110569F7D5CF80918201EF
:1010400081FD0E94FC0380E0EE24E394F12C9401E6
:101050002E213F21232B09F18E837F82CE20DF209A
:1010600081E0CD2809F480E088870E94E00D81604E
:10107000782F9A8789874E815F8168858A850E944B
:101080004F0A000F111FF801E25DFE4F8081918130
:10109000E826F926F182E08206C08F5FEE0CFF1C85
:1010A0008B30A9F6C5CF0E946B0790912D0189174F
:1010B000C9F00E946B0780932D012A960FB6F89411
:1010C000DEBF0FBECDBFDF91CF911F910F91FF907B
:1010D000EF90DF90CF90BF90AF909F908F907F90D8
:1010E0000C9446022A960FB6F894DEBF0FBECDBF11
:1010F000DF91CF911F910F91FF90EF90DF90CF90F4
:10110000BF90AF909F908F907F900895CF9388234A
:1011100071F1C82F8CEF8C0F813AD0F46C2F809135
:101120000001909101010E94150D882349F06C2F58
:1011300080910001909101010E944D0D0E94220CAE
:101140006C2F80910001909101010E944B0D0CC009
:1011500080E28C0F883058F4C77081E001C0880F9E
:10116000CA95EAF70E94440CCF910C94220CCF91BF
:101170000895882349F1682F8CEF860F813A38F45F
:1011800080910001909101010E944D0D0CC080E200
:10119000860F883050F4677081E001C0880F6A952F
:1011A000EAF70E944A0C0C94220C8BE5860F8330E0
:1011B00020F480E090E00C948207685A673120F4B4
:1011C00080E090E00C9498070895CF93C82F0E9478
:1011D0008608C93349F42FEF87EE93E02150804011
:1011E0009040E1F700C000008C2FCF910C94B9081B
:1011F000882321F00E94440C0C94220C089588232B
:1012000021F00E944A0C0C94220C08950F931F9316
:10121000CF93DF93D62FC72F172F12951F70FC0186
:101220000281002389F00E94610C183081F008F4DB
:10123000AAC0193009F0B7C08C2F8F700E94DE0A47
:101240008D2F0E94F808B2C0183009F099C08C2F79
:10125000837009F047C00111A9C02D2F2295269552
:101260002770220F220F6D2F6F70862F90E0A0E065
:10127000B0E0022E04C0880F991FAA1FBB1F0A945A
:10128000D2F7D4FF10C04FE050E060E070E004C03F
:10129000440F551F661F771F2A95D2F7409550952A
:1012A0006095709503C040E050E0BA01C695C695C0
:1012B000C3708A019B01082B192B2A2B3B2BC901D8
:1012C000B801C23049F058F4C13019F00E94AC0A9C
:1012D0006DC00E949A0A6AC00E94BE0A67C00E943E
:1012E000980A64C0002319F08C2F817001C0869584
:1012F000882309F45BC02D2F229526952770220F95
:10130000220F6D2F6F70862F90E0A0E0B0E0022ECC
:1013100004C0880F991FAA1FBB1F0A94D2F7D4FFDD
:1013200010C04FE050E060E070E004C0440F551F73
:10133000661F771F2A95D2F7409550956095709556
:1013400003C040E050E0BA01C695C695C3708A015B
:101350009B01082B192B2A2B3B2BC901B801C2304A
:1013600049F058F4C13019F00E94360B1FC00E949A
:10137000240B1CC00E94480B19C00E94D20A16C040
:10138000193008F040C0123070F48C2F807FCF707D
:10139000882311F0C295C07F002301F1C1110EC056
:1013A0008D2F0E94860818501230B8F50E946B07E6
:1013B000DF91CF911F910F910C94460280E28D0F27
:1013C000883010F0D11104C08C2F0E94440C03C04F
:1013D0008C2F0E94540C0E94220CE2CF8D2F0E9471
:1013E000B908CC2301F380E28D0F883010F0D111C1
:1013F00004C08C2F0E944A0C03C08C2F0E945A0CF0
:101400000E94220CD0CF193071F68D2F0E94FF0858
:101410008C2F8F700E94FF0AC9CFDF91CF911F914F
:101420000F9108950F931F93CF93DF93EC01688181
:1014300079818A810E94FF0B8C010E945A0B0E94C5
:10144000860AB801CE010E940609DF91CF911F9153
:101450000F910895CF93DF93FC01908181812381C7
:101460003481232B31F08F3F31F481E09F3F19F419
:1014700003C081E001C080E080FD0EC0EF01CF011C
:101480000E940202882341F0CE010E94120ACE017E
:10149000DF91CF910C94DD01DF91CF910895CF932F
:1014A000DF93CDB7DEB72A970FB6F894DEBF0FBE35
:1014B000CDBF4E835F83688779878A8785E0FE0189
:1014C0003696DE01119601900D928A95E1F7CE01D4
:1014D00001960E942A0A2A960FB6F894DEBF0FBE24
:1014E000CDBFDF91CF9108950E94610C0E94640CE2
:1014F0000C94220C80910001909101010E944F0DEB
:101500000C94740A0E94510C0C947A0A0895089560
:101510000C94870A0C94880A0E948A0A60937301CB
:101520007093740180937501909376010C94740A02
:101530000C948C0A0F931F93009173011091740106
:101540002091750130917601602B712B822B932BAA
:101550001F910F910C948C0A0F931F9300917301AC
:1015600010917401209175013091760160237123EF
:10157000822393231F910F910C948C0A0F931F9336
:1015800000917301109174012091750130917601E1
:1015900060277127822793271F910F910C948C0A43
:1015A0000C94870A0E94D00A60936F0170937001B7
:1015B00080937101909372010C94740A0F931F939E
:1015C00041E050E060E070E004C0440F551F661F2A
:1015D000771F8A95D2F780916F0190917001A09149
:1015E0007101B09172018A019B01082B192B2A2BE2
:1015F0003B2BC901B8011F910F910C94D20A0F9394
:101600001F9341E050E060E070E004C0440F551FBC
:10161000661F771F8A95D2F7409550956095709513
:1016200080916F0190917001A0917101B091720150
:101630008A019B01082319232A233B23C901B801EE
:101640001F910F910C94D20A0F931F9300916F0179
:10165000109170012091710130917201602B712BFA
:10166000822B932B1F910F910C94D20A0F931F93EF
:1016700000916F0110917001209171013091720100
:1016800060237123822393231F910F910C94D20A1C
:101690000F931F9300916F011091700120917101C0
:1016A0003091720160277127822793271F910F9134
:1016B0000C94D20A08952BE0929F800D1124E82FFC
:1016C000E695E695E695877051E001C0550F8A953D
:1016D000EAF785E0E89FF0011124E35CFE4F20E08B
:1016E00030E070E04081CB01022E02C096958795D4
:1016F0000A94E2F78170819584278523842781935A
:101700002F5F3F4F2530310569F708952BE0929FF9
:10171000800D1124682F669566956695982F9770B1
:1017200085E0689FB001112440E050E080E0FB01BB
:10173000E40FF51FE35CFE4F208130E0092E02C06C
:10174000369527950A94E2F721703327042E01C0BD
:10175000220F0A94EAF7822B4F5F5F4F4530510505
:1017600031F70895BF92CF92DF92EF92FF920F93DD
:101770001F93CF93DF938C01C0906F01D0907001C5
:10178000E0907101F0907201809173019091740169
:10179000A0917501B0917601C82AD92AEA2AFB2ABC
:1017A000CFE1D0E0D701C6010C2E04C0B695A795B5
:1017B000979587950A94D2F780FD04C0219790F7FA
:1017C000B12C07C0BC2EB8018C2F0E946202019779
:1017D000A9F38B2DDF91CF911F910F91FF90EF9087
:1017E000DF90CF90BF900895CF93DF93EC010E94DC
:1017F000B20BBE010E946202DF91CF9108951F9348
:10180000CF93DF93EB0190913C01992321F0CB0121
:101810000E94F40B13C0882349F0CB010E94B20B45
:10182000182F682FCE010E945B0B04C0CB010E94D1
:10183000860B182FBE01812F0E946202DF91CF918B
:101840001F910895E0910001F091010180918101C3
:101850008083E0910001F0910101908180918001ED
:10186000892B8083E0910001F091010190818091AA
:101870007F01892B808380910001909101010C945C
:10188000770780918101089590918101892B809340
:101890008101089580959091810189238093810130
:1018A000089510928101089590918001892B809371
:1018B0008001089580959091800189238093800113
:1018C000089510928001089510927F01089580E09C
:1018D00090E00E94AA1421E08C3E9E4F09F020E087
:1018E000822F089582E090E00C94A21483E090E0AF
:1018F0000C94A214CF9384E090E00E94A214C82F0D
:1019000081E290E00E94A2142C2F30E0A901582B14
:10191000CA01CF910895CF93C92F682F84E090E03A
:101920000E94B0146C2F81E290E0CF910C94B0141F
:10193000AB01BC018FE090E00C94C214AB01BC0180
:1019400083E190E00C94C21460E070E0CB010C9451
:101950009E0C60E070E0CB010E94980C0C94A40CEB
:101960006CEE7EEF80E090E00E94CE1460E082E0BA
:1019700090E00E94B01460E083E090E00E94B01418
:1019800010927301109274011092750110927601F9
:1019900060E084E090E00E94B01460E081E290E0BA
:1019A0000E94B01460E085E090E00E94B01460E016
:1019B00086E090E00E94B0146FEF87E090E00E9414
:1019C000B01440E050E0BA0188E090E00E94C214F8
:1019D00060E08DE090E00E94B01440E050E0BA0179
:1019E00088E190E00E94C21460E087E190E00E94EC
:1019F000B01440E050E0BA018CE190E00E94C214C3
:101A000060E080E290E00E94B01440E050E0BA0153
:101A100088E190E00E94C2140C94A90C0C94B00CC4
:101A2000682F8EE090E00C94B014662349F0FC011E
:101A3000329608962191621729F0E817F907D1F735
:101A400080E0089581E008959C01FC0132969FEFAB
:101A500080E04191461789F09F3F19F4411101C080
:101A6000982F8F5F8630A9F79F3F39F0F901E90F72
:101A7000F11D97FDFA956283089508959C012A5FF0
:101A80003F4FFC014281461301C01282019682172A
:101A90009307B9F708950C94240D0C943E0D02960B
:101AA00026E0FC0111922A95E9F7089508950C9417
:101AB000560D0C94560DCF930E94590D0E94490467
:101AC0000E94570DC0E08C2F0E94F303892B29F44C
:101AD000CF5FC730C1F780E001C081E0CF910895AA
:101AE0000C94560D0C94700D0E94720D8091B401EF
:101AF000843049F11092830120E488E190E00FB630
:101B0000F894A895809360000FBE2093600080E059
:101B10000E9446020E94720D83B7817F846083BF5A
:101B200083B7816083BF7894889583B78E7F83BFA6
:101B30000FB6F894A895809160008861809360004A
:101B4000109260000FBE08950C94560D0E94820AF8
:101B50000E946B070E9446020C94A40D1F920F92E4
:101B60000FB60F9211248F939F93AF93BF938091E1
:101B70008301811113C08091AA019091AB01A091C2
:101B8000AC01B091AD014196A11DB11D8093AA0198
:101B90009093AB01A093AC01B093AD01BF91AF9115
:101BA0009F918F910F900FBE0F901F90189582E01C
:101BB00084BD93E095BD9AEF97BD80936E00089524
:101BC0002FB7F8948091AA019091AB01A091AC013C
:101BD000B091AD012FBF08959C014FB7F89480914B
:101BE000AA019091AB01A091AC01B091AD014FBFA2
:101BF000821B930B089578941F920F920FB60F9249
:101C000011248F939F93AF93BF938091AA019091DA
:101C1000AB01A091AC01B091AD010196A11DB11D28
:101C20008093AA019093AB01A093AC01B093AD0156
:101C3000BF91AF919F918F910F900FBE0F901F900A
:101C4000189587E797E790930108809300089AE03A
:101C500088E10FB6F894A895809360000FBE90932A
:101C60006000FFCF0E94670C811102C00E940E0D20
:101C70000E94720C809382010E947A0C9093AF01B3
:101C80008093AE010E94760C682F70E080E090E0B7
:101C90000E94980A60916F017091700180917101AA
:101CA000909172010C94D00A80918C01089508954E
:101CB0000895CF93DF9321E02093E9002FEF309137
:101CC000E800215035FD06C035ED3A95F1F70000EA
:101CD0002111F5CF2091E80025FF14C0EC0140E070
:101CE00050E068E070E00E94FE0F8091E8008E777F
:101CF0008093E80088E0FE01A4E8B1E001900D9235
:101D00008A95E1F7DF91CF91089508958091B3010D
:101D1000811109C00E948F110E94EC118091E20094
:101D200084608093E20008951092B30108950895AD
:101D300008950C94A60D42E061EC81E00C9408112A
:101D40008091B601833009F460C030F4813071F0C5
:101D5000823009F499C008958A3009F485C08B3027
:101D600009F46BC0893009F0A7C020C08091B5018B
:101D7000813A09F0A1C08091E800877F8093E80054
:101D80008091B9019091BA01892B21F468E084E82F
:101D900091E003C060E080E090E070E00E944910B4
:101DA0008091E8008B778093E80008958091B501D9
:101DB000813209F081C08091B9019091BA01892BDB
:101DC00009F07AC08091E800877F8093E8008091D5
:101DD000E80082FD05C08091B4018111F8CF6CC08C
:101DE0002091F3008091F20090E0922B029729F469
:101DF0008091F1008B7F813021F48091F1008093FC
:101E00008C018091E8008B7753C08091B501813AB5
:101E100009F052C08091B9019091BA01892B09F063
:101E20004BC08091E800877F8093E8008091E800B4
:101E300080FFFCCF80910C0136C08091B5018132CA
:101E4000D9F58091B9019091BA01892BA9F58091BA
:101E5000E800877F8093E8000E943D118091B701E0
:101E600080930C010C94820A8091B501813221F596
:101E70008091E800877F8093E8000E943D11809167
:101E8000B80180938D0108958091B501813AA1F444
:101E90008091E800877F8093E8008091E80080FFD0
:101EA000FCCF80918D018093F1008091E8008E77C6
:101EB0008093E8000C943D11089584B7877F84BF18
:101EC0000FB6F894A89580916000886180936000B7
:101ED000109260000FBE90E080E80FB6F8948093F7
:101EE0006100909361000FBE0E94C6070E948F118F
:101EF0000E94EC118091E20084608093E20078946B
:101F00000E9481140E94CC0782E091E00E94660743
:101F10008091B401853069F40E94740D8091B20102
:101F20008823B1F30E945B0D882391F30E94E80F90
:101F3000EFCF0E94D4070E94BA070E94B907E8CFEA
:101F40000C94A20F292F332723303105C1F058F408
:101F50002130310579F02230310591F582E290E0AF
:101F60002AE232E031C021323105E1F0223231057E
:101F700001F126C082E190E02CE432E025C09927EF
:101F80008130910549F028F00297D1F4E4EFF1E0B7
:101F900005C0E6E2F2E002C0E0E1F2E0849190E008
:101FA0009F0112C0672B61F489E090E02CE332E0DE
:101FB0000BC0672B29F480E490E02EE532E004C0EA
:101FC00080E090E020E030E0FA0131832083089542
:101FD00080E189BD82E189BD09B400FEFDCF809119
:101FE000D8008F7D8093D8008091E000826080933C
:101FF000E0008091E00081FDFCCF0895CF92DF9258
:10200000EF92FF920F931F93CF93DF93EC018B011D
:102010007A010E945C11811133C0E114F10439F09E
:10202000F70180819181081B190BC80FD91FC12CA2
:10203000D12C0115110519F18091E80085FD16C01C
:102040008091E8008E778093E800E114F10449F074
:10205000F70180819181C80ED91ED182C08285E0AE
:102060000FC00E945C11882321F30AC089918093DC
:10207000F10001501109FFEFCF1ADF0ADACF80E03B
:10208000DF91CF911F910F91FF90EF90DF90CF9054
:1020900008952091BB013091BC012617370748F005
:1020A0006115710539F42091E8002E772093E8003E
:1020B00001C0B901FC0120E06115710579F1809141
:1020C000B4018823F1F18530F1F18091E80083FDBE
:1020D0003CC08091E80082FD2EC08091E80080FF26
:1020E000EBCF2091F3008091F20090E0922B6115EC
:1020F000710551F08830910538F421912093F10059
:10210000615071090196F3CF21E0089709F020E0B2
:102110008091E8008E778093E800CECF2111CFCF59
:102120000AC08091B401882361F0853061F080910C
:10213000E80083FD0AC08091E80082FFF2CF80E0D2
:10214000089582E0089583E0089581E00895209144
:10215000BB013091BC012617370748F061157105A6
:1021600039F42091E8002E772093E80001C0B901EE
:10217000FC0120E06115710591F18091B401882383
:1021800009F440C0853009F43FC08091E80083FD28
:102190003DC08091E80082FD2FC08091E80080FF63
:1021A000E9CF2091F3008091F20090E0922B61152D
:1021B000710559F08830910540F424912093F10085
:1021C0003196615071090196F2CF21E0089709F02C
:1021D00020E08091E8008E778093E800CBCF21113A
:1021E000CCCF0AC08091B401882361F0853061F0C2
:1021F0008091E80083FD0AC08091E80082FFF2CF61
:1022000080E0089582E0089583E0089581E00895D4
:10221000982F973068F59093E900981739F07091EE
:10222000EC002091ED005091F00003C0242F762F98
:1022300050E021FD02C09F5FECCF3091EB003E7F6C
:102240003093EB003091ED003D7F3093ED00309105
:10225000EB0031603093EB007093EC002093ED00C5
:102260005093F0002091EE0027FDE5CF80E0089527
:102270008F708093E90081E008958091B50187FF18
:1022800011C08091E80082FD05C08091B4018111E8
:10229000F8CF11C08091E8008B770BC08091B4011A
:1022A000882349F08091E80080FFF8CF8091E80012
:1022B0008E778093E80008952091E4003091E50046
:1022C00095E64091EC00842F817040FF23C08091FF
:1022D000E80080FD1DC08091B401882399F085300D
:1022E00099F08091EB0085FD11C04091E400509180
:1022F000E5002417350729F3915011F09A01E1CF39
:1023000084E0089582E0089583E0089581E00895CF
:1023100080E008954091E80042FFDDCF08950E94DB
:10232000FD110E940512E0EEF0E080818160808363
:10233000E8EDF0E080818F77808319BCA7EDB0E0F5
:102340008C918E7F8C9380818F7E80831092B301DD
:1023500008950F931F93CF93DF930E94FD110E9466
:102360000512C8EDD0E088818F77888388818068E6
:10237000888388818F7D888319BC1092B401109264
:10238000B0011092B2011092B10100EE10E0F8011C
:1023900080818B7F808388818160888342E060E0D8
:1023A00080E00E940811E1EEF0E080818E7F808362
:1023B000E2EEF0E0808181608083808188608083AC
:1023C000F80180818E7F8083888180618883DF919E
:1023D000CF911F910F910895E8EDF0E080818F7EFD
:1023E0008083E7EDF0E080818160808384E082BFBC
:1023F00081E08093B3010C94A911E8EDF0E08081B5
:102400008E7F80831092E20008951092DA0010927D
:10241000E10008951F920F920FB60F9211242F938F
:102420003F934F935F936F937F938F939F93AF935C
:10243000BF93EF93FF938091E10082FF0BC08091E7
:10244000E20082FF07C08091E1008B7F8093E10072
:102450000E9480148091DA0080FF1FC08091D80014
:1024600080FF1BC08091DA008E7F8093DA0080911C
:10247000D90080FF0DC080E189BD82E189BD09B42A
:1024800000FEFDCF81E08093B4010E94860E05C05E
:1024900019BC1092B4010E94940E8091E10080FF5B
:1024A00019C08091E20080FF15C08091E2008E7F0C
:1024B0008093E2008091E20080618093E20080914D
:1024C000D80080628093D80019BC85E08093B40165
:1024D0000E94980E8091E10084FF30C08091E2005C
:1024E00084FF2CC080E189BD82E189BD09B400FE72
:1024F000FDCF8091D8008F7D8093D8008091E1003E
:102500008F7E8093E1008091E2008F7E8093E200D5
:102510008091E20081608093E2008091B001882385
:1025200011F084E007C08091E30087FD02C081E0E4
:1025300001C083E08093B4010E94990E8091E10074
:1025400083FF29C08091E20083FF25C08091E100D4
:10255000877F8093E10082E08093B4011092B00104
:102560008091E1008E7F8093E1008091E2008E7F78
:102570008093E2008091E20080618093E20042E07B
:1025800060E080E00E9408118091F00088608093F4
:10259000F0000E94970EFF91EF91BF91AF919F9134
:1025A0008F917F916F915F914F913F912F910F90FC
:1025B0000FBE0F901F9018951F920F920FB60F929B
:1025C00011242F933F934F935F936F937F938F9338
:1025D0009F93AF93BF93CF93DF93EF93FF93C091FC
:1025E000E900CF708091EC00D82FD17080FDD0E849
:1025F0001092E9008091F000877F8093F00078943A
:102600000E9420131092E9008091F000886080936E
:10261000F000CD2BCF70C093E900FF91EF91DF91D7
:10262000CF91BF91AF919F918F917F916F915F916A
:102630004F913F912F910F900FBE0F901F901895C3
:102640001F93CF93DF93CDB7DEB7AA970FB6F89459
:10265000DEBF0FBECDBFE5EBF1E08091F1008193CD
:1026600021E0ED3BF207C9F70E94A00E8091E8003F
:1026700083FF2EC18091B5019091B601492F50E0A2
:102680004A30510508F024C1FA01EA5AFF4F0C9470
:102690009C14803821F0823809F01AC108C080915A
:1026A000B1019091B201992389F082600FC08091AD
:1026B000B9018F70873008F00BC18093E9008091D9
:1026C000EB0085FB882780F91092E9009091E800E3
:1026D000977F9093E8008093F1001092F100D1C0B1
:1026E000282F2D7F09F0F4C0882319F0823061F083
:1026F000EFC08091B701813009F0EAC0933009F052
:1027000080E08093B2012EC08091B70181112AC070
:102710008091B9018F702FEF280F263008F0D8C0B4
:102720008093E9002091EB0020FF1CC0933021F43E
:102730008091EB00806214C09091EB0090619093C7
:10274000EB0021E030E0A90102C0440F551F8A953B
:10275000E2F74093EA001092EA008091EB00886073
:102760008093EB001092E9008091E800877F8093CE
:10277000E8000E943D11ACC08111AAC01091B701C0
:102780001F778091E3008078812B8093E300809114
:10279000E800877F8093E8000E943D118091E80067
:1027A00080FFFCCF8091E30080688093E3001111EB
:1027B00002C082E001C083E08093B40189C08058E8
:1027C000823008F085C08091B7019091B8018C3DAE
:1027D00053E0950779F583E08A838AE289834FB7CE
:1027E000F894DE01139620E03EE051E2E32FF0E0A2
:1027F00050935700E49120FF03C0E295EF703F5FD4
:10280000EF708E2F90E0EA3010F0C79601C0C096AE
:102810008D939D932F5F243149F74FBF8091E8003E
:10282000877F8093E8006AE270E0CE0101960E9403
:10283000491016C06091B9017091BA01AE014F5FA5
:102840005F4F0E94A00FBC01892B09F441C09091F9
:10285000E800977F9093E80089819A810E94A710F1
:102860008091E8008B778093E80032C0803881F552
:102870008091E800877F8093E8008091B001809389
:10288000F1008091E8008E7772CF811121C0809194
:10289000B7019091B80199270297D4F48091E8008C
:1028A000877F8093E8008091B7018093B0010E94F8
:1028B0003D118091B001811106C08091E30087FD38
:1028C00002C081E001C084E08093B4010E949B0EAD
:1028D0008091E80083FF0AC08091E800877F8093A1
:1028E000E8008091EB0080628093EB00AA960FB61F
:1028F000F894DEBF0FBECDBFDF91CF911F91089539
:102900000895CF938091B4018823A1F0C091E9008C
:10291000CF709091EC00892F817090FD80E8C82BDA
:102920001092E9008091E80083FD0E942013CF708F
:10293000C093E900CF910895EE0FFF1F0590F49129
:10294000E02D0994F999FECF92BD81BDF89A99279F
:1029500080B50895A8E1B0E042E050E00C94D614B0
:10296000262FF999FECF92BD81BDF89A019700B448
:10297000021639F01FBA20BD0FB6F894FA9AF99AE8
:102980000FBE08950396272F0E94B1140E94B01421
:10299000252F0E94B114242F0C94B1140196272FD7
:1029A0000E94B1140C94B014DC01CB01FC01F99924
:1029B000FECF06C0F2BDE1BDF89A319600B40D928B
:0C29C00041505040B8F70895F894FFCF44
:1029CC007701540E590E570E850E580E0167663658
:1029DC003534969497959293F0F1F4F5F6F7C6008A
:00000001FF
