:100000000C9414010C9431010C9431010C943101C5
:100010000C9431010C9431010C9431010C94310198
:100020000C9431010C9431010C94D6150C94A81643
:100030000C9434110C9431010C9431010C94310165
:100040000C9431010C9431010C9431010C94310168
:100050000C9431010C94BD110C9431010C943101BC
:100060000C9431010C9431010C9431010C94310148
:100070000C9431010C9431010C9431010C94310138
:100080000C9431010C9431010C9431010C94310128
:100090000C9431010C9431010C9431010C94310118
:1000A0000C9431010C9431010C9431011017371765
:1000B0002F1837172F188317A6172F18FD170C188E
:1000C000290035002B003900E100E00011000D008F
:1000D0001800240040003A001E00140004006400D0
:1000E000E20010000E000C00250041003B001F0044
:1000F0001A0016001D00E30036000F001200260053
:1001000042003C002000080007001B002C003700C4
:1001100033001300270043003D00210015000900B3
:1001200006005000380034002F002D0044003E002F
:10013000220017000A00190051005200320030005E
:100140002E0045003F0023001C000B0005004F005F
:10015000E60028002A004C00460000AE00AF00DA9E
:100160000281FFD9F1DB20A4A62EAF00A0C000A120
:10017000C800AED580A81FD300408D1420001A03FC
:1001800055005300420020004B00650079006200DA
:100190006F0061007200640000001403420041001F
:1001A0004C005400480041005A0041005200000039
:1001B0000403090409022200010100A0FA09040055
:1001C0000001030101000921110100012240000783
:1001D0000581030800011201000200000008EDFE85
:1001E000FEBA01000102000105010906A10105078F
:1001F00019E029E71500250195087501810295018F
:10020000750881010507190029FF150026FF0095D3
:1002100006750881000508190129059505750191E4
:1002200002950175039101C011241FBECFEFDAE0E2
:10023000DEBFCDBF11E0A0E0B1E0EEEFF1E302C020
:1002400005900D92A033B107D9F724E0A0E3B1E007
:1002500001C01D92AC30B207E1F70E941F0B0C9455
:10026000FD180C94000081E0089581E008950E943B
:100270003501089508950E943A010895A5E0B0E07F
:10028000E4E4F1E00C94861849835A8330913301F9
:1002900089819A81311114C0662359F0222349F0D3
:1002A0000E948105182F682F89819A810E945D051F
:1002B00003C00E946F05182F69817A81812F04C0C5
:1002C0000E94810569817A810E9483082596E3E076
:1002D0000C94A218FC01262F408151816281738108
:1002E00084810E943E01089581E00895CF93DF93B9
:1002F000EC0160E00E946A01BE010E943B01DF91B7
:10030000CF9108950E94BD0908950E94B7090895EC
:1003100008950E941F040E9488012FEF84E39CE04F
:10032000215080409040E1F700C0000008950E94F5
:1003300089010E94E31108950E9489010E94F4112D
:1003400008950F931F93CF93DF93EC0161E00E9418
:100350006A018C01BE010E943701882311F1BE01A0
:10036000C8010E940E0F8823E1F0BE01C8010E945F
:100370002C0D8823B1F0BE01C8010E94740E8823A1
:1003800081F08A818823A1F00F3D8CE5180759F090
:10039000083A8DE5180749F001151C4549F40E94FB
:1003A000970180E008C00E94E9060E949C01F9CFF5
:1003B000CE010E943301DF91CF911F910F910895DB
:1003C0000E940C110E94FF010E94E10C08950E94FE
:1003D00003020E941511089508950E94EC010895EA
:1003E00081E008950E94F00108950895CF93C82FE9
:1003F0000E94ED018C2F0E94F201CF91089580E0C0
:100400000E94F60108950E9461100E94F60108956D
:100410000E94611090913201891721F0809332017E
:100420000E94F6010895CF93882369F1C82F8CEFBD
:100430008C0F813AD0F46C2F8091000190910101D2
:100440000E94A510882349F06C2F809100019091A3
:1004500001010E94DE100E94E9056C2F80910001CD
:10046000909101010E94DB100CC080E28C0F88305B
:1004700050F4C77081E001C0880FCA95EAF70E9466
:1004800019060E94E905CF910895882359F1682F34
:100490008CEF860F813A38F4809100019091010130
:1004A0000E94DE100CC080E2860F883058F467701E
:1004B00081E001C0880F6A95EAF70E941F060E943A
:1004C000E90508958BE5860F833028F480E090E0FD
:1004D0000E9479100895685A673120F480E090E016
:1004E0000E948F1008951F93CF93DF93182FEB0175
:1004F0000E941302209741F08FE99FE00197F1F7E6
:1005000000C000002197F6CF812F0E944502DF91A5
:10051000CF911F910895893319F060E070E002C017
:1005200060E570E00E9473020895882321F00E9424
:1005300019060E94E9050895882321F00E941F06EC
:100540000E94E90508950F931F93CF93DF93D62F51
:10055000172F12951F70FC0192811830E9F118F4E1
:10056000123028F0E0C0193009F4CBC0DCC0872F6E
:10057000807F7F70C72F882311F0C295C07F992399
:10058000A9F0CC2379F080E28D0F883010F0D111E2
:1005900004C08C2F0E94190603C08C2F0E942906CC
:1005A0000E94E9058D2F0E941302BDC08D2F0E946D
:1005B0004502CC2309F4B7C080E28D0F883010F0DB
:1005C000D11104C08C2F0E941F0603C08C2F0E94E3
:1005D0002F060E94E905A7C0872F837009F045C048
:1005E0009111A4C0462F429546954770440F440F81
:1005F000862F8F7090E0A0E0B0E0042E04C0880F3A
:10060000991FAA1FBB1F0A94D2F764FF10C00FE006
:1006100010E020E030E004C0000F111F221F331F44
:100620004A95D2F7009510952095309503C000E0CB
:1006300010E0980176957695472F4370BC01CD0167
:10064000602B712B822B932B423049F058F44130B0
:1006500019F00E944F046AC00E943C0467C00E94C7
:10066000620464C00E94390461C0992319F0872F85
:10067000817001C08695882309F458C04D2F42959A
:1006800046954770440F440F8D2F8F7090E0A0E087
:10069000B0E0042E04C0880F991FAA1FBB1F0A9444
:1006A000D2F7D4FF10C00FE010E020E030E004C02B
:1006B000000F111F221F331F4A95D2F70095109586
:1006C0002095309503C000E010E09801769576956E
:1006D000472F4370BC01CD01602B712B822B932BD4
:1006E000423049F058F4413019F00E94E0041EC035
:1006F0000E94CD041BC00E94F30418C00E9478041D
:1007000015C0C72FCF70992339F08C2F0E94850414
:100710008D2F0E9495020AC0862F0E949C028C2F6A
:100720000E94A70403C01850123020F40E946110E8
:100730000E94F601DF91CF911F910F9108950F93C1
:100740001F93CF93DF93EC01688179818A810E94A6
:10075000C6058C010E9406050E942404B801CE0142
:100760000E94A302DF91CF911F910F910895CF9323
:10077000DF93FC019081818123813481232B31F02F
:100780008F3F31F481E09F3F19F403C081E001C045
:1007900080E080FD0CC0EF01CF010E94A101882301
:1007A00031F0CE010E949F03CE010E947601DF91BD
:1007B000CF910895AAE0B0E0E0EEF3E00C94871842
:1007C0004E835F83688779878A8761110E94360626
:1007D00085E0FE013696DE01119601900D928A9514
:1007E000E1F799818A812C813D81232B31F08F3F64
:1007F00031F481E09F3F19F403C081E001C080E043
:1008000080FF05C0CE0101960E94B70306C0CE014D
:1008100001960E9474018111F5CF2A96E2E00C94B2
:10082000A3180E9436060E94E905089580910001F0
:10083000909101010E94E1100E94110408950E940C
:1008400026060E9416040895089508950E9425041E
:1008500008950E94260408950E94290460936A0165
:1008600070936B0180936C0190936D010E94110451
:1008700008950E942C0408950F931F9300916A011C
:1008800010916B0120916C0130916D01602B712BE7
:10089000822B932B0E942C041F910F9108950F938C
:1008A0001F9300916A0110916B0120916C013091AE
:1008B0006D0160237123822393230E942C041F91D6
:1008C0000F9108950F931F9300916A0110916B018E
:1008D00020916C0130916D01602771278227932749
:1008E0000E942C041F910F9108950E9425040895E1
:1008F0000E9475046093660170936701809368019C
:10090000909369010E94110408950F931F9341E091
:1009100050E060E070E004C0440F551F661F771F71
:100920008A95D2F78091660190916701A091680144
:10093000B09169018A019B01082B192B2A2B3B2BB3
:10094000C901B8010E9478041F910F9108950F9377
:100950001F9341E050E060E070E004C0440F551F79
:10096000661F771F8A95D2F74095509560957095D0
:100970008091660190916701A0916801B091690131
:100980008A019B01082319232A233B23C901B801AB
:100990000E9478041F910F9108950F931F93009167
:1009A0006601109167012091680130916901602B07
:1009B000712B822B932B0E9478041F910F91089525
:1009C0000F931F93009166011091670120916801B8
:1009D0003091690160237123822393230E9478045C
:1009E0001F910F9108950F931F930091660110912D
:1009F0006701209168013091690160277127822782
:100A000093270E9478041F910F9108950895962FBF
:100A10009770A1E001C0AA0F9A95EAF793E0769546
:100A200067959A95E1F795E0969F9001979F300D15
:100A30001124FA01E20FF31F40E050E0682F70E04C
:100A400090819B01042E02C0369527950A94E2F707
:100A50002170219529272A23292721934F5F5F4F52
:100A60004530510569F70895FB01782F777023E031
:100A7000969587952A95E1F745E0489F9001499F13
:100A8000300D1124E20FF31F40E050E080E021918F
:100A900030E0072E02C0369527950A94E2F72170C0
:100AA0003327042E01C0220F0A94EAF7822B4F5FEE
:100AB0005F4F4530510559F70895282F973070F44E
:100AC0008B3060F4862F622F70E02BE0929F600DD8
:100AD000711D112444E351E00E94070508959730E9
:100AE00070F48B3060F4292F90E064E371E03BE018
:100AF000239F800D911D11240E943405089580E0EC
:100B00000895A0E0B0E0E7E8F5E00C9480188C01CF
:100B1000C0906601D0906701E0906801F090690193
:100B200080916A0190916B01A0916C01B0916D016F
:100B3000C82AD92AEA2AFB2ACFE1D0E0D701C60188
:100B40000C2E04C0B695A795979587950A94D2F771
:100B500080FD04C0219790F7B12C07C0BC2EB801CE
:100B60008C2F0E949C080197A9F38B2DCDB7DEB77F
:100B7000E9E00C949C18CF93DF93EC010E9481056F
:100B8000BE010E949C08DF91CF9108951F93CF93DF
:100B9000DF93EB0190913301992321F0CB010E9467
:100BA000BB0513C0882349F0CB010E948105182F93
:100BB000682FCE010E945D0504C0CB010E946F0525
:100BC000182FBE01812F0E949C08DF91CF911F91A9
:100BD0000895CF93DF93E0910001F091010180919E
:100BE0007F018083E0910001F0910101908180916B
:100BF0007E01892B8083C0910001D091010148E0E2
:100C000050E06EE671E0CE010E94AE18892B59F0DB
:100C100088E0FE01AEE6B1E001900D928A95E1F721
:100C2000CE010E946E10DF91CF91089580917F01D7
:100C3000089590917F01892B80937F01089580957D
:100C400090917F01892380937F01089510927F0105
:100C5000089590917E01892B80937E01089580955F
:100C600090917E01892380937E01089510927E01E8
:100C7000089580E090E00E94C31821E0883E9E4FD6
:100C800009F020E0822F089582E090E00E94BB18D6
:100C9000089583E090E00E94BB180895CF9384E00C
:100CA00090E00E94BB18C82F82E290E00E94BB181F
:100CB0002C2F30E0A901582BCA01CF910895CF9372
:100CC000C92F682F84E090E00E94C9186C2F82E23F
:100CD00090E00E94C918CF910895AB01BC018FE04C
:100CE00090E00E94DB180895AB01BC0183E190E025
:100CF0000E94DB18089560E070E0CB010E9474064A
:100D0000089560E070E0CB010E946D060E947B06B2
:100D1000089568EE7EEF80E090E00E94E71860E0C2
:100D200082E090E00E94C91860E083E090E00E94B9
:100D3000C91810926A0110926B0110926C01109206
:100D40006D0160E084E090E00E94C91864E082E2F6
:100D500090E00E94C91860E085E090E00E94C91808
:100D600060E086E090E00E94C9186FEF87E090E0B5
:100D70000E94C91840E050E0BA0188E090E00E946B
:100D8000DB1860E08DE090E00E94C91840E050E080
:100D9000BA0188E190E00E94DB1860E087E190E012
:100DA0000E94C91840E050E0BA018CE190E00E9436
:100DB000DB1860E070E080E290E00E94E71840E01D
:100DC00050E0BA0188E190E00E94DB180E948106A1
:100DD00008950E9489060895682F8EE090E00E9491
:100DE000C91808950E94A211609392017093930113
:100DF000809394019093950160938E0170938F017D
:100E00008093900190939101089581E008950E944C
:100E10000507089508950E940A0708950E940A0789
:100E200008950E940E0708950E940A0708950E94DF
:100E3000140708950E940A07089588E799E00E9420
:100E400057100E941A070E94170708950E940B0767
:100E50000E940A0708950E947B090E94F5010895E7
:100E60000E948D110E946C0A0E942B0780E00E9454
:100E70006C0B0E9411070895AAE0B0E0E2E4F7E0ED
:100E80000C947A180E94820AC82E81110E94F206E0
:100E900030E8832E31E0932E00E010E0502E802FBA
:100EA0000E94A0095C01F401619071904F016826D5
:100EB000792661147104B1F40F5F1F4F07301105DB
:100EC00069F78FEF89838A831B820E949611816064
:100ED000782F9D838C8349815A816B818D810E94FB
:100EE000DA033BC08091960181FD0E94A909D12CB3
:100EF000EE24E394F12CC3018E219F21892B31F143
:100F00000E9407078823B1F0DE825F82AE20BF20F7
:100F100081E0A114B10409F480E088870E94961151
:100F20008160782F9A8789874E815F8168858A855D
:100F30000E94DA03000F111FF801E058FE4F808174
:100F40009181E826F926F182E08207C0D394EE0C65
:100F5000FF1CFBE0DF12CFCFAFCF81E0C11001C09B
:100F600080E02A96EFE00C949618CF930E943C07FD
:100F7000C82F0E94000DC1110E94CD0B0E940802D3
:100F8000CF910895CF93DF930E94A108EC018115C2
:100F900021E5920750F5811530E5930708F05CC014
:100FA000883E910580F4803E910508F0A8C081300C
:100FB000910509F44EC008F49FC00497813A910549
:100FC00008F49DC099C0811541E0940708F494C0CD
:100FD0008115904208F493C0C11580E4D80708F445
:100FE0008BC0DF70CE01906A8BC0811524E592071B
:100FF00080F4811533E5930708F063C0811542E55D
:10100000940708F049C0D82FCC27CE01816F906A91
:1010100077C08115984508F46FC0C11589E5D807D8
:1010200008F464C0C1152AE5D20708F065C08C2F0A
:101030008F700E94350994E0D695C7959A95E1F78F
:10104000CF70D0E0DC2FCC27D0699E01282BC901BE
:1010500057C081E090E054C054E0969587955A952A
:10106000E1F7282F23703C2F337081E090E002C01D
:10107000880F991F3A95E2F79C68AC01522B9A01B0
:101080009C2F9F709695969550E2959FE0011124B4
:10109000C9018C2B9D2B34C08370992721E030E04F
:1010A00002C0220F331F8A95E2F79C2F96959695E2
:1010B00080E2989FE0011124C22BD32BCE019C68C3
:1010C0001FC08370992721E030E002C0220F331F38
:1010D0008A95E2F79C2F9695969540E2949FE001C1
:1010E0001124C22BD32BCE019A680AC0DC2FCC2747
:1010F000CE01806F906A04C080E090E001C0CE0114
:10110000DF91CF9108957730A0F46B3090F49DE497
:10111000899FF00111248BE0789FE00DF11D1124CF
:10112000E60FF11DEE0FFF1FE054FF4F85919491E4
:10113000089580E090E008950E9483080E94C2070D
:1011400008958238910569F1B0F48133910509F46D
:101150006DC048F48932910509F463C08A32910563
:1011600009F469C008958533910509F455C08933A0
:101170009105B9F00895833E910569F138F4803EF8
:101180009105B1F0823E910509F10895863E9105E1
:10119000A9F1873E9105B9F1843E910509F064C03B
:1011A00023C02091D70120FD4FC021FD4DC00895DF
:1011B0008091D70180FD44C08091D80180FF44C058
:1011C0008091D70184FD42C083EE4DC08091D7014C
:1011D00082FF38C0F5CF8091D70182FD33C0809166
:1011E000D80180FD31C0ECCF8091D80181FF32C0A1
:1011F0008091D70184FD2AC087EE35C08091D70148
:1012000083FF26C0F5CF8091D70183FD21C0809157
:10121000D80181FD1FC0ECCF8091D70185FD1CC096
:101220001DC08091D70185FD19C016C08091D701DE
:1012300086FD16C017C08091D70186FD13C010C06F
:1012400089E311C082EE0FC080EE0DC080E00BC0BC
:1012500086EE09C084EE07C089E205C085E303C0BD
:101260008AE201C081E390E008959091D70192FF56
:101270000DC0282F2871283019F4877F846006C09C
:10128000282F2471243011F48B7F886093FF0DC0C8
:10129000282F2871283119F4877E846106C0282FF1
:1012A0002471243111F48B7E88612091D80120FFB4
:1012B0000DC0382F3871383019F4877F816006C02F
:1012C000382F3171313011F48E7F886021FF0DC0CD
:1012D000282F2871283119F4877E816106C0282FB4
:1012E0002171213111F48E7E886194FD877E0895ED
:1012F00080E0089508950E943906811102C00E947D
:10130000E9060E944406809396010E944E0690933F
:10131000D8018093D7010E947A090E944906682F5C
:1013200070E080E090E00E94390460916601709165
:10133000670180916801909169010E947504089588
:10134000E82FF0E0EE0FFF1FE951FE4F8081918101
:101350000895089580EA8A95F1F7089500C00895E8
:101360000E94AA09089508950E94B30908950E9451
:10137000B40908950E94B30908950E94BA09089516
:10138000F894E82FE295EF70F0E031A1282F2F704C
:1013900081E090E001C0880F2A95EAF7982F909598
:1013A000932391A392A1892B82A3789408950F93FC
:1013B0001F93CF93DF93C6E1D1E089918F3F11F066
:1013C0000E94C00981E0C132D807B9F7C1E2D1E07B
:1013D00008E211E089918F3F11F00E94C0090C17BB
:1013E0001D07C1F7DF91CF911F910F910895AF9223
:1013F000BF92DF92EF92FF920F931F93CF93DF93F1
:10140000C62FD0E0CA5EDE4F28812F3F09F45AC0B4
:101410008A01F62EE92ED82EF894E22FE295EF708D
:10142000F0E091A1822F8F7021E030E001C0220F07
:101430008A95EAF7892F822B81A382A12095282300
:1014400022A378940E94AE0981E2A82E81E0B82EF2
:10145000ED2DFE2D9F01225F3F4FE12CA80140950D
:101460005095D5016D915D016F3FC9F0862F829532
:101470008F7090E0DC0190968C9190E06F7002C0CC
:10148000959587956A95E2F780FD09C080819181E5
:10149000802B912B91838083EE24E39406C080817E
:1014A000918184239523918380833296E217F307F9
:1014B000C1F688818F3F11F00E94C0096E2D8F2DDB
:1014C0000E94B009DF91CF911F910F91FF90EF9093
:1014D000DF90BF90AF9008950E94D7098EE0E7EEAD
:1014E000F1E0DF01982F1D929A95E9F7E9EDF1E01F
:1014F000DF011D928A95E9F787E00E94D70A0E94D2
:1015000082010895CF92DF92FF920F931F93CF93A2
:10151000DF93CDB7DEB72E970FB6F894DEBF0FBEC0
:10152000CDBF8E010F5F1F4F8EE0F80111928A959B
:10153000E9F7F12CCC24C394D12CA6016F2DC8015E
:101540000E94F709F394CC0CDD1CFBE0FF12F5CFF1
:101550004EE050E0B80189ED91E00E94AE18FF2402
:10156000F394009709F4F12C892B41F08EE0F801F7
:10157000A9EDB1E001900D928A95E1F72F2D47E09A
:1015800067EE71E089ED91E00E94D80A0E94850122
:101590008F2D2E960FB6F894DEBF0FBECDBFDF9114
:1015A000CF911F910F91FF90DF90CF9008950895F4
:1015B000FF920F931F93CF93DF93F82E092F162FCF
:1015C000D72FC42F222349F081E0809399010E94F4
:1015D00096119093980180939701809199018823A7
:1015E000D9F080919701909198010E94AE110597D2
:1015F00098F0EF2DF02FA12FBD2F80E090E04C2F21
:1016000050E08417950734F4219131912D933D9347
:101610000196F7CF10929901CDB7DEB7E5E00C94B3
:10162000A0180E9443130E9430070E94501308958F
:101630000E9455130E94B5070E946F1308950E94DF
:101640002D110E9429130E941D070E94110B0E9458
:10165000180B0E942607FBCFEF92FF920F931F9368
:10166000CF93DF93EC017B0164E670E088E70E9492
:10167000660F8C01EC0EFD1ECE15DF0561F017FD27
:101680000AC0FE01849164E670E00E94DB0F8C01C9
:101690002196892B89F30E945310C801CDB7DEB77C
:1016A000E6E00C949F1808950E94530B0895E5EF0F
:1016B000F1E080E092E0DF019C011D92215030407A
:1016C000E1F7F093FA03E093F9038FEF9FEF909324
:1016D000C0018093BF0108950E94540B0E94530BD8
:1016E0008093BB0180FD02C080E801C080E280934E
:1016F000BA010E94600F6DE070E081E791E00E9406
:101700002C0B892B11F080E008958091BB0163E0E0
:1017100070E081FD03C08EE691E002C08BE691E0AF
:101720000E942C0B892B79F76DE070E08EE591E03B
:101730000E942C0B892B39F70E94A211DC01CB01EE
:10174000805A9541AF4FBF4F8093F5039093F603B6
:10175000A093F703B093F8030E94570B81E08093A6
:10176000BE018093BD011092BC0108952091BA0181
:1017700036E0839FC0011124629F800D911D1124CA
:10178000811522E0920714F080E090E08B509E4F8C
:101790009093FA038093F90308958091BE01882302
:1017A000F9F00E94A211DC01CB01805A9541AF4FA4
:1017B000BF4F8093F5039093F603A093F703B09384
:1017C000F8038091BD0181110BC062E070E08CE5EF
:1017D00091E00E942C0B892B19F481E08093BD01CC
:1017E0008091BD010895A0E0B0E0E9EFFBE00C942A
:1017F0007B188091BE01882309F4DEC02091BF01CF
:101800003091C0012115310509F4D6C08091BC0189
:101810008111D2C061E070E0082F10E03B01082E7A
:1018200002C0660C771C0A94E2F7A90146215721F1
:10183000452B11F48F5FF0CF9091BB01980165E0CB
:10184000220F331F6A95E1F790FD12C08295880F31
:10185000807680930401220F232F221F330B3195B2
:1018600020930701815E809305011092080112C048
:1018700045E0369527954A95E1F7220F220F220F72
:101880002093040110920701295F2093050183E052
:101890008093080124E630E047E050E062E071E028
:1018A00088E70E940B10892B09F086C08091BB014C
:1018B00080FD23C0A80195E0440F551F9A95E1F7DC
:1018C0004B505E4F04E610E020E230E060E488E731
:1018D0000E942C10892B09F06FC00E94CD0BE301F0
:1018E000C095D0958091BF019091C001C823D923A4
:1018F000D093C001C093BF015FC080E2EAE9F1E08C
:10190000DF011D928A95E9F785E0000F111F8A9586
:10191000E1F7ACE2B1E048E251E0992493942D91D3
:10192000EA018991AE01B801680F711D6B507E4FBD
:1019300030E026563E4FF90197E07F01E21AF30AA4
:10194000A92C01C0AA0CEA94EAF77B01B12CE701AB
:1019500089917E018A21892E8B18D82DD770CD2EA2
:101960000D2E000CDD08C82F01C0CC0FDA95EAF768
:101970008C2ED194C194D108D7E0CD22DD240C2C3B
:1019800001C086950A94EAF78C2BD0808D2980833C
:10199000B39488E0B812DBCF915031969F3F69F63F
:1019A000C1E0A033BC0709F0BACF04E610E020E2A2
:1019B00030E04AE951E08ACFCDB7DEB7EEE00C94D3
:1019C00097188091BE019091BD01882389F09923D9
:1019D00069F062E070E08AE591E00E942C0B892BAF
:1019E00019F08091BD0108951092BD019091BD0143
:1019F00081E08927089581E008950E94FB0C0895F5
:101A00000F931F938091BE01882319F160E080E05D
:101A10000E94B60B0E94FD0C0E94F30B8091BD0149
:101A20008823B9F00E94A2110091F5031091F603EA
:101A30002091F7033091F803DC01CB01801B910B5F
:101A4000A20BB30B8F3F9F4FAF4FBF4710F40E94C5
:101A5000E10C1F910F910895CF93DF93EC01FB01EF
:101A60008281882309F43CC1C430FDE5DF0760F4BE
:101A7000CB3F9CE5D90788F49E0122503C45243198
:101A8000310508F02EC109C0C236EDE5DE0729F0A8
:101A9000C63AFDE5DF0709F024C10E944E06909387
:101AA000D8018093D701C1318CE5D80709F4C6C0AD
:101AB00008F042C0C930ECE5DE0709F49BC000F530
:101AC000C5308CE5D80709F485C078F4C330ECE55F
:101AD000DE0709F478C008F07AC0C230DC4509F0AE
:101AE000F5C08091D7018160EFC0C7309CE5D90770
:101AF00009F478C008F07AC08091D7018061E4C011
:101B0000CD30FCE5DF0709F487C058F4CB309CE505
:101B1000D90709F479C008F07BC08091D7018860AB
:101B20006FC0CF30FCE5DF0709F480C008F082C049
:101B30008091D701877FC8C0CE3F9CE5D90709F4C3
:101B400071C000F5C531FCE5DF0709F485C068F414
:101B5000C3319CE5D90709F475C008F095C00E940F
:101B60001F048091D7018F77AFC0CC3FFCE5DF0722
:101B7000A9F108F054C0CB3FDC4509F0A7C0809123
:101B8000D80140C0C230EDE5DE0709F489C058F441
:101B9000C1158DE5D80709F45AC008F069C08091D5
:101BA000D80182602FC0C236EDE5DE0709F47CC0A3
:101BB000C63AFDE5DF0709F481C0C330DD4509F011
:101BC00085C080E06EC08091D70182607DC0809129
:101BD000D70116C08091D701886076C08091D80166
:101BE00082604FC08091D70180626EC08091D70122
:101BF00080646AC00E941F048091D701806864C01D
:101C0000846062C081603DC08091D7018E7F5CC0DE
:101C10008091D7018D7F58C08091D70116C08091E7
:101C2000D80118C08091D8018D7F2BC08091D70139
:101C30008F7E4AC08091D7018F7D46C08091D701A9
:101C40008F7B42C08091D701877F8B7F3DC0809181
:101C5000D8018D7F8E7F15C08091D70182FB22270E
:101C600020F991E0922790FB82F990FB83F92CC038
:101C70008091D801982F909591708E7F892B90FB41
:101C800081F98093D80122C00E941F048091D7015E
:101C900087FB222720F991E0922790FB87F914C057
:101CA00081E00E94EC0612C08091D70184FB2227BC
:101CB00020F991E0922790FB84F906C08091D7012A
:101CC000982F909590FB80F98093D7018091D70150
:101CD0009091D8010E945F060E941F0480E001C01D
:101CE00081E0DF91CF910895CF93DF9386319C45BA
:101CF00041F5EB010E941606982F8A812091000180
:101D000030910101882379F09A7A81E009F480E02A
:101D10008093C101911102C069E201C065E3C9016C
:101D20000E94DB100AC08091C101811102C069E2EA
:101D300001C065E3C9010E94DE100E94E90580E050
:101D400001C081E0DF91CF9108950F931F93CF934E
:101D5000DF93C42FD22FFC0182818823B1F04093FE
:101D6000C4010E9496119093C3018093C20180E246
:101D70008C0F883008F04DC0C77081E001C0880F1B
:101D8000CA95EAF70E94950244C08091C4014813A5
:101D900030C08091C2019091C3010E94AE11883C75
:101DA000910538F510E21D0FCD17B9F080E28C0FC8
:101DB000883040F4C77081E001C0880FCA95EAF707
:101DC0000E949C02183010F581E09D2F977001C091
:101DD000880F9A95EAF70E949502802F0E948B0245
:101DE0001830B8F4D77081E001C0880FDA95EAF7AF
:101DF0000AC080E28C0F883060F4C77081E001C0B7
:101E0000880FCA95EAF70E949C0203C0802F0E94A7
:101E10008B02DF91CF911F910F9108950F939C0139
:101E2000CB01243F4CE5340731F188F4293DFCE532
:101E30003F07D9F02A3D4CE5340779F1283D3C4570
:101E4000A9F506E221EE41EE68ED7CE52BC0263FC8
:101E5000FCE53F07E1F0A8F0273F3C4539F507E2F4
:101E600025EE46EE67EF7CE51DC007E225EE45EE68
:101E700069ED7CE517C006E221EE40EE64EF7CE5FB
:101E800011C007E225EE44EE65EF7CE50BC006E2EB
:101E900021EE42EE66EF7CE505C008E221E045EE6A
:101EA0006AED7CE50E94A50E80E008C0FC018281FD
:101EB000882319F01092C40101C081E00F910895A8
:101EC0001092B9008CE08093B8000895A0E0B0E0D3
:101ED000ECE6FFE00C947E18B82EEB010E94961100
:101EE0006C01C431D10558F0CF3F8FEFD80759F0BE
:101EF000CE0164E170E00E945D187B0107C0EE2412
:101F0000E394F12C03C025E0E22EF12C84E8A82E06
:101F100094EA992E1092BC009092BC000E949611F7
:101F20008C018091BC0087FD08C00E949611801B27
:101F3000910B8E159F05A8F32AC08091B900887F68
:101F4000883041F08091B900887F803119F00FEF1F
:101F50001FEF1FC0B092BB00A092BC000E94961160
:101F60008C018091BC0087FD08C00E949611801BE7
:101F7000910B8E159F05A8F30AC08091B900887F48
:101F8000883111F0803419F700E010E00EC00EEF38
:101F90001FEFCF3F8FEFD80709F4BCCFC6010E94D7
:101FA000AE118C179D0708F4B5CFC801CDB7DEB7C9
:101FB000EBE00C949A180F931F93CF93DF93EB01F0
:101FC0008093BB0084E88093BC000E9496118C0132
:101FD0008091BC0087FD0EC0CF3F8FEFD807C1F3C3
:101FE0000E949611801B910B8C179D0788F38EEF32
:101FF0009FEF0CC02091B900287F81E090E028324B
:1020000011F480E090E0919581959109DF91CF9155
:102010001F910F910895A0E0B0E0E1E1F0E10C9490
:1020200081186B018A017901B9010E94660FE601EE
:102030000C0D1D1DC017D10741F424E92093BC00ED
:10204000CDB7DEB7E8E00C949D1897FDF6CFB70149
:1020500089910E94DB0FEECFA0E0B0E0E2E3F0E177
:102060000C948118C62F6A017901B8010E94660F8D
:1020700097FD11C0B8018C2F0E94DB0FE601EC0C1C
:10208000FD1CCE15DF0539F097FD05C0B80189911B
:102090000E94DB0FF6CF24E92093BC00CDB7DEB75A
:1020A000E8E00C949D1884E98093BC000895909317
:1020B00031018093300108959093CA018093C90142
:1020C0000895E091C901F091CA01309729F001907B
:1020D000F081E02D0995089580E00895E091C9010F
:1020E000F091CA01309721F00280F381E02D09952B
:1020F00008952091C7013091C8012817390771F060
:102100009093C8018093C701E091C901F091CA0181
:10211000309721F00680F781E02D099508952091F0
:10212000C5013091C6012817390771F09093C60197
:102130008093C501E091C901F091CA01309721F067
:102140000084F185E02D09950895662349F0FC018E
:10215000329608962191621729F0E817F907D1F70E
:1021600080E0089581E008959C01FC0132969FEF84
:1021700080E04191461789F09F3F19F4411101C059
:10218000982F8F5F8630A9F79F3F39F0F901E90F4B
:10219000F11D97FDFA956283089508959C012A5FC9
:1021A0003F4FFC014281461301C012820196821703
:1021B0009307B9F708950E94B41008950E94CE10B5
:1021C0000895029626E0FC0111922A95E9F70895F8
:1021D00008950E94E810089583E08093CB010E9447
:1021E000E9100895811102C081E001C082E080936E
:1021F000CB010E94E91008950E94F210089581E039
:102200008093CB010E94E91008950E94FF10089569
:1022100008950E94081108950E94091108950E94CE
:10222000081108950E94081108950E940811089548
:10223000CF930E9412110E94820A0E940F11C0E0E7
:102240008C2F0E94A009892B29F4CF5FC730C1F7DA
:1022500080E001C081E0CF91089585B7806885BF97
:1022600085B7806885BF08951F920F920FB60F92B1
:1022700011248F939F93AF93BF938091CC018111D1
:1022800013C08091FB039091FC03A091FD03B091DA
:10229000FE034196A11DB11D8093FB039093FC03A7
:1022A000A093FD03B093FE03BF91AF919F918F91D7
:1022B0000F900FBE0F901F901895809103048430EB
:1022C00031F10E94E0011092CC0120E488E190E01D
:1022D0000FB6F894A895809360000FBE209360001D
:1022E00083B7817F846083BF83B7816083BF789425
:1022F000889583B78E7F83BF0FB6F894A895809199
:102300006000886180936000109260000FBE0895A5
:102310000E941F040E94E701089582E084BD93E0BB
:1023200095BD9AEF97BD80936E0008952FB7F894EE
:102330008091FB039091FC03A091FD03B091FE03FB
:102340002FBF08952FB7F8946091FB037091FC03A1
:102350008091FD039091FE032FBF08959C014FB71C
:10236000F8948091FB039091FC03A091FD03B09140
:10237000FE034FBF821B930B089578941F920F9218
:102380000FB60F9211248F939F93AF93BF938091B9
:10239000FB039091FC03A091FD03B091FE03019615
:1023A000A11DB11D8093FB039093FC03A093FD033B
:1023B000B093FE03BF91AF919F918F910F900FBE8D
:1023C0000F901F90189587E797E7909301088093E7
:1023D00000089AE088E10FB6F894A8958093600011
:1023E0000FBE90936000FFCF9AE088E10FB6F8949B
:1023F000A895809360000FBE90936000FFCF8091FE
:10240000D501089508950895CF93DF9321E0209397
:10241000E9002FEF3091E800215035FD06C035ED81
:102420003A95F1F700002111F5CF2091E80025FF42
:1024300014C0EC0140E050E068E070E00E94CF136F
:102440008091E8008E778093E80088E0FE01ADEC93
:10245000B1E001900D928A95E1F7DF91CF91089557
:102460000895089580910204811109C00E945A15AF
:102470000E94B7158091E20084608093E200089585
:102480001092020408950E94051108956091FF03BF
:1024900081E0611101C080E00E94EC1008959091EC
:1024A000030481E0943009F080E06091FF030E9412
:1024B000F210089542E061EC81E00E94D314909103
:1024C000030481E0943009F080E06091FF030E94F2
:1024D000FC10089580910504833009F461C030F444
:1024E000813071F0823009F49BC008958A3009F47C
:1024F00087C08B3009F46CC0893009F0A9C020C0B6
:1025000080910404813A09F0A3C08091E800877F9C
:102510008093E8008091080490910904892B21F4AC
:1025200068E08DEC91E003C060E080E090E070E056
:102530000E9414148091E8008B778093E80008953E
:1025400080910404813209F083C080910804909145
:102550000904892B09F07CC08091E800877F809373
:10256000E8008091E80082FD05C08091030481119C
:10257000F8CF6EC02091F3008091F20090E0922B92
:10258000029731F48091F100813011F0863021F40E
:102590008091F1008093D5018091E8008B7754C041
:1025A00080910404813A09F053C08091080490910D
:1025B0000904892B09F04CC08091E800877F809343
:1025C000E8008091E80080FFFCCF8091150137C0C2
:1025D000809104048132E1F580910804909109040E
:1025E000892BB1F58091E800877F8093E8000E94F5
:1025F000081580910604809315010E941F04089518
:1026000080910404813221F58091E800877F8093D6
:10261000E8000E940815809107048093D601089570
:1026200080910404813AA1F48091E800877F80932F
:10263000E8008091E80080FFFCCF8091D601809374
:10264000F1008091E8008E778093E8000E940815E1
:10265000089584B7877F84BF0FB6F894A8958091BA
:102660006000886180936000109260000FBE90E06F
:1026700080E80FB6F89480936100909361000FBEDC
:102680000E94FF1008950E945A150E94B715E2EEAD
:10269000F0E080818460808378940E9442180895DD
:1026A00089E091E00E945C100895809103048530D8
:1026B000A9F480910304853079F40E945D11809122
:1026C00001048823B1F30E941811882391F30E941A
:1026D000B9130E941F04EDCF0E9488110895089538
:1026E0000E9473130895292F332723303105C1F039
:1026F00058F42130310579F02230310591F582E22C
:1027000090E024EB31E031C021323105E1F022329A
:10271000310501F126C082E190E026ED31E025C0CF
:1027200099278130910549F028F00297D1F4EEE71E
:10273000F1E005C0E0EBF1E002C0EAE9F1E08491EC
:1027400090E09F0112C0672B61F489E090E026ECD5
:1027500031E00BC0672B29F480E490E028EE31E0F3
:1027600004C080E090E020E030E0FA013183208373
:10277000089580E189BD82E189BD09B400FEFDCFE5
:102780008091D8008F7D8093D8008091E000826096
:102790008093E0008091E00081FDFCCF0895A0E0EF
:1027A000B0E0E5EDF3E10C948118EC018B017A01C6
:1027B0000E942715811133C0E114F10439F0F701AB
:1027C00080819181081B190BC80FD91FC12CD12CF6
:1027D0000115110519F18091E80085FD16C0809161
:1027E000E8008E778093E800E114F10449F0F701E6
:1027F00080819181C80ED91ED182C08285E00FC030
:102800000E942715882321F30AC089918093F10043
:1028100001501109FFEFCF1ADF0ADACF80E0CDB700
:10282000DEB7E8E00C949D1820910A0430910B0467
:102830002617370748F06115710539F42091E80033
:102840002E772093E80001C0B901FC0120E061155A
:10285000710579F1809103048823F1F18530F1F15C
:102860008091E80083FD3CC08091E80082FD2EC08D
:102870008091E80080FFEBCF2091F3008091F2007F
:1028800090E0922B6115710551F08830910538F474
:1028900021912093F100615071090196F3CF21E05D
:1028A000089709F020E08091E8008E778093E80097
:1028B000CECF2111CFCF0AC080910304882361F0CD
:1028C000853061F08091E80083FD0AC08091E800C6
:1028D00082FFF2CF80E0089582E0089583E00895BA
:1028E00081E0089520910A0430910B0426173707E0
:1028F00048F06115710539F42091E8002E77209396
:10290000E80001C0B901FC0120E06115710591F1F9
:1029100080910304882309F440C0853009F43FC046
:102920008091E80083FD3DC08091E80082FD2FC0CA
:102930008091E80080FFE9CF2091F3008091F200C0
:1029400090E0922B6115710559F08830910540F4A3
:1029500024912093F1003196615071090196F2CFD4
:1029600021E0089709F020E08091E8008E778093BD
:10297000E800CBCF2111CCCF0AC08091030488237B
:1029800061F0853061F08091E80083FD0AC080919C
:10299000E80082FFF2CF80E0089582E0089583E0AE
:1029A000089581E00895982F973068F59093E90095
:1029B000981739F07091EC002091ED005091F000E3
:1029C00003C0242F762F50E021FD02C09F5FECCF83
:1029D0003091EB003E7F3093EB003091ED003D7F76
:1029E0003093ED003091EB0031603093EB00709349
:1029F000EC002093ED005093F0002091EE0027FDB5
:102A0000E5CF80E008958F708093E90081E008951C
:102A10008091040487FF11C08091E80082FD05C009
:102A2000809103048111F8CF11C08091E8008B7769
:102A30000BC080910304882349F08091E80080FF57
:102A4000F8CF8091E8008E778093E8000895209178
:102A5000E4003091E50095E64091EC00842F817010
:102A600040FF23C08091E80080FD1DC080910304D9
:102A7000882399F0853099F08091EB0085FD11C095
:102A80004091E4005091E5002417350729F3915057
:102A900011F09A01E1CF84E0089582E0089583E087
:102AA000089581E0089580E008954091E80042FF94
:102AB000DDCF08950E94C9150E94D115E0EEF0E027
:102AC000808181608083E8EDF0E080818F77808372
:102AD00019BCA7EDB0E08C918E7F8C9380818F7EA6
:102AE00080831092020408950F931F93CF93DF9376
:102AF0000E94C9150E94D115C8EDD0E088818F775A
:102B0000888388818068888388818F7D888319BCC9
:102B1000109203041092FF0310920104109200041B
:102B200000EE10E0F80180818B7F808388818160D6
:102B3000888342E060E080E00E94D314E1EEF0E0A0
:102B400080818E7F8083E2EEF0E0808181608083EF
:102B5000808188608083F80180818E7F8083888176
:102B600080618883DF91CF911F910F910895E8EDE7
:102B7000F0E080818F7E8083E7EDF0E080818160EE
:102B8000808384E082BF81E0809302040E947415F8
:102B90000895E8EDF0E080818E7F80831092E2005E
:102BA00008951092DA001092E10008951F920F929A
:102BB0000FB60F9211242F933F934F935F936F9310
:102BC0007F938F939F93AF93BF93EF93FF938091E6
:102BD000E10082FF0BC08091E20082FF07C080917C
:102BE000E1008B7F8093E1000E9441188091DA0020
:102BF00080FF1FC08091D80080FF1BC08091DA0049
:102C00008E7F8093DA008091D90080FF0DC080E133
:102C100089BD82E189BD09B400FEFDCF81E08093CA
:102C200003040E94321205C019BC109203040E94D2
:102C300040128091E10080FF19C08091E20080FF86
:102C400015C08091E2008E7F8093E2008091E200C7
:102C500080618093E2008091D80080628093D800E8
:102C600019BC85E0809303040E9446128091E10024
:102C700084FF30C08091E20084FF2CC080E189BDD8
:102C800082E189BD09B400FEFDCF8091D8008F7D1F
:102C90008093D8008091E1008F7E8093E100809145
:102CA000E2008F7E8093E2008091E2008160809359
:102CB000E2008091FF03882311F084E007C0809137
:102CC000E30087FD02C081E001C083E0809303043C
:102CD0000E944F128091E10083FF29C08091E200A1
:102CE00083FF25C08091E100877F8093E10082E02F
:102CF000809303041092FF038091E1008E7F809304
:102D0000E1008091E2008E7F8093E2008091E200FA
:102D100080618093E20042E060E080E00E94D31492
:102D20008091F00088608093F0000E944312FF9130
:102D3000EF91BF91AF919F918F917F916F915F9133
:102D40004F913F912F910F900FBE0F901F901895AC
:102D50001F920F920FB60F9211242F933F934F9310
:102D60005F936F937F938F939F93AF93BF93CF9313
:102D7000DF93EF93FF93C091E900CF708091EC0057
:102D8000D82FD17080FDD0E81092E9008091F0003A
:102D9000877F8093F00078940E94EC161092E900EF
:102DA0008091F00088608093F000CD2BCF70C093AD
:102DB000E900FF91EF91DF91CF91BF91AF919F918A
:102DC0008F917F916F915F914F913F912F910F90D4
:102DD0000FBE0F901F901895AAE2B0E0E2EFF6E167
:102DE0000C948618E4E0F4E08091F100819324E0F3
:102DF000EC30F207C9F70E946A128091E80083FF65
:102E00002EC18091040490910504492F50E04A306E
:102E1000510508F024C1FA01EA5AFF4F0C947118C9
:102E2000803821F0823809F01AC108C0809100046E
:102E300090910104992389F082600FC08091080469
:102E40008F70873008F00BC18093E9008091EB0010
:102E500085FB882780F91092E9009091E800977F20
:102E60009093E8008093F1001092F100D1C0282FD8
:102E70002D7F09F0F4C0882319F0823061F0EFC093
:102E800080910604813009F0EAC0933009F080E0B7
:102E9000809301042EC08091060481112AC0809184
:102EA00008048F702FEF280F263008F0D8C08093C9
:102EB000E9002091EB0020FF1CC0933021F48091A9
:102EC000EB00806214C09091EB0090619093EB0056
:102ED00021E030E0A90102C0440F551F8A95E2F7B6
:102EE0004093EA001092EA008091EB0088608093A2
:102EF000EB001092E9008091E800877F8093E80062
:102F00000E940815ACC08111AAC0109106041F7759
:102F10008091E3008078812B8093E3008091E8002A
:102F2000877F8093E8000E9408158091E80080FF69
:102F3000FCCF8091E30080688093E300111102C010
:102F400082E001C083E08093030489C0805882300E
:102F500008F085C080910604909107048C3D53E0F1
:102F6000950779F583E08A838AE289834FB7F894DD
:102F7000DE01139620E03EE051E2E32FF0E05093B3
:102F80005700E49120FF03C0E295EF703F5FEF70C0
:102F90008E2F90E0EA3010F0C79601C0C0968D9356
:102FA0009D932F5F243149F74FBF8091E800877FC1
:102FB0008093E8006AE270E0CE0101960E9414144A
:102FC00016C06091080470910904AE014F5F5F4F15
:102FD0000E947013BC01892B09F441C09091E80054
:102FE000977F9093E80089819A810E947214809162
:102FF000E8008B778093E80032C0803881F58091BB
:10300000E800877F8093E8008091FF038093F100C0
:103010008091E8008E7772CF811121C080910604E3
:103020009091070499270297D4F48091E800877F54
:103030008093E800809106048093FF030E940815A6
:103040008091FF03811106C08091E30087FD02C0DB
:1030500081E001C084E0809303040E945A128091B1
:10306000E80083FF0AC08091E800877F8093E80032
:103070008091EB0080628093EB00AA96E3E00C94D1
:10308000A2180895CF93809103048823A1F0C091E2
:10309000E900CF709091EC00892F817090FD80E85D
:1030A000C82B1092E9008091E80083FD0E94EC1685
:1030B000CF70C093E900CF910895AA1BBB1B51E1CB
:1030C00007C0AA1FBB1FA617B70710F0A61BB70B98
:1030D000881F991F5A95A9F780959095BC01CD013D
:1030E0000895EE0FFF1F0590F491E02D09942F92A3
:1030F0003F924F925F926F927F928F929F92AF9288
:10310000BF92CF92DF92EF92FF920F931F93CF93D4
:10311000DF93CDB7DEB7CA1BDB0B0FB6F894DEBF6B
:103120000FBECDBF09942A88398848885F846E8491
:103130007D848C849B84AA84B984C884DF80EE80DB
:10314000FD800C811B81AA81B981CE0FD11D0FB6E4
:10315000F894DEBF0FBECDBFED010895FB01DC0189
:1031600004C08D910190801921F441505040C8F75E
:10317000881B990B0895F999FECF92BD81BDF89AED
:10318000992780B50895A8E1B0E042E050E00C94A2
:10319000EF18262FF999FECF92BD81BDF89A0197BD
:1031A00000B4021639F01FBA20BD0FB6F894FA9A8F
:1031B000F99A0FBE08950396272F0E94CA180E94FD
:1031C000C918252F0E94CA18242F0C94CA180196DA
:1031D000272F0E94CA180C94C918DC01CB01FC01EE
:1031E000F999FECF06C0F2BDE1BDF89A319600B460
:0E31F0000D9241505040B8F70895F894FFCF6B
:1031FE0076010021007F220003FF110412301231EC
:10320E00120212031201C26766363534979694374E
:10321E0093F0F1F4F5F6F7C6000810181810080030
:00000001FF
